{
  "_format": "hh-sol-artifact-1",
  "contractName": "Settlement",
  "sourceName": "contracts/Settlement.sol",
  "abi": [
    {
      "inputs": [],
      "name": "ECDSAInvalidSignature",
      "type": "error"
    },
    {
      "inputs": [
        {
          "internalType": "uint256",
          "name": "length",
          "type": "uint256"
        }
      ],
      "name": "ECDSAInvalidSignatureLength",
      "type": "error"
    },
    {
      "inputs": [
        {
          "internalType": "bytes32",
          "name": "s",
          "type": "bytes32"
        }
      ],
      "name": "ECDSAInvalidSignatureS",
      "type": "error"
    },
    {
      "anonymous": false,
      "inputs": [
        {
          "indexed": true,
          "internalType": "address",
          "name": "buyer",
          "type": "address"
        },
        {
          "indexed": true,
          "internalType": "address",
          "name": "seller",
          "type": "address"
        },
        {
          "indexed": false,
          "internalType": "uint256",
          "name": "size",
          "type": "uint256"
        },
        {
          "indexed": false,
          "internalType": "uint256",
          "name": "unitPrice",
          "type": "uint256"
        },
        {
          "indexed": false,
          "internalType": "uint256",
          "name": "totalValue",
          "type": "uint256"
        }
      ],
      "name": "TradeExecuted",
      "type": "event"
    },
    {
      "inputs": [
        {
          "components": [
            {
              "components": [
                {
                  "internalType": "address",
                  "name": "user",
                  "type": "address"
                },
                {
                  "internalType": "uint256",
                  "name": "size",
                  "type": "uint256"
                },
                {
                  "internalType": "string",
                  "name": "orderId",
                  "type": "string"
                },
                {
                  "internalType": "bytes",
                  "name": "signature",
                  "type": "bytes"
                }
              ],
              "internalType": "struct Settlement.Ask[]",
              "name": "asks",
              "type": "tuple[]"
            },
            {
              "components": [
                {
                  "internalType": "address",
                  "name": "user",
                  "type": "address"
                },
                {
                  "internalType": "uint256",
                  "name": "size",
                  "type": "uint256"
                },
                {
                  "internalType": "string",
                  "name": "orderId",
                  "type": "string"
                },
                {
                  "internalType": "bytes",
                  "name": "signature",
                  "type": "bytes"
                }
              ],
              "internalType": "struct Settlement.Bid[]",
              "name": "bids",
              "type": "tuple[]"
            },
            {
              "internalType": "uint256",
              "name": "totalSize",
              "type": "uint256"
            },
            {
              "internalType": "uint256",
              "name": "unitPrice",
              "type": "uint256"
            },
            {
              "internalType": "address",
              "name": "baseToken",
              "type": "address"
            },
            {
              "internalType": "address",
              "name": "quoteToken",
              "type": "address"
            },
            {
              "internalType": "uint256",
              "name": "tokenId",
              "type": "uint256"
            },
            {
              "internalType": "uint8",
              "name": "baseTokenType",
              "type": "uint8"
            },
            {
              "internalType": "uint8",
              "name": "quoteTokenType",
              "type": "uint8"
            }
          ],
          "internalType": "struct Settlement.Trade",
          "name": "trade",
          "type": "tuple"
        }
      ],
      "name": "executeTrade",
      "outputs": [],
      "stateMutability": "nonpayable",
      "type": "function"
    },
    {
      "inputs": [
        {
          "internalType": "address",
          "name": "",
          "type": "address"
        },
        {
          "internalType": "address",
          "name": "",
          "type": "address"
        },
        {
          "internalType": "uint256[]",
          "name": "",
          "type": "uint256[]"
        },
        {
          "internalType": "uint256[]",
          "name": "",
          "type": "uint256[]"
        },
        {
          "internalType": "bytes",
          "name": "",
          "type": "bytes"
        }
      ],
      "name": "onERC1155BatchReceived",
      "outputs": [
        {
          "internalType": "bytes4",
          "name": "",
          "type": "bytes4"
        }
      ],
      "stateMutability": "nonpayable",
      "type": "function"
    },
    {
      "inputs": [
        {
          "internalType": "address",
          "name": "",
          "type": "address"
        },
        {
          "internalType": "address",
          "name": "",
          "type": "address"
        },
        {
          "internalType": "uint256",
          "name": "",
          "type": "uint256"
        },
        {
          "internalType": "uint256",
          "name": "",
          "type": "uint256"
        },
        {
          "internalType": "bytes",
          "name": "",
          "type": "bytes"
        }
      ],
      "name": "onERC1155Received",
      "outputs": [
        {
          "internalType": "bytes4",
          "name": "",
          "type": "bytes4"
        }
      ],
      "stateMutability": "nonpayable",
      "type": "function"
    },
    {
      "inputs": [
        {
          "internalType": "bytes4",
          "name": "interfaceId",
          "type": "bytes4"
        }
      ],
      "name": "supportsInterface",
      "outputs": [
        {
          "internalType": "bool",
          "name": "",
          "type": "bool"
        }
      ],
      "stateMutability": "view",
      "type": "function"
    },
    {
      "inputs": [
        {
          "internalType": "string",
          "name": "message",
          "type": "string"
        },
        {
          "internalType": "bytes",
          "name": "signature",
          "type": "bytes"
        },
        {
          "internalType": "address",
          "name": "signer",
          "type": "address"
        }
      ],
      "name": "verifySignature",
      "outputs": [
        {
          "internalType": "bool",
          "name": "",
          "type": "bool"
        }
      ],
      "stateMutability": "pure",
      "type": "function"
    }
  ],
  "bytecode": "0x6080604052348015600f57600080fd5b5061281e8061001f6000396000f3fe608060405234801561001057600080fd5b50600436106100575760003560e01c806301ffc9a71461005c578063bc197c811461008c578063c95571a4146100bc578063f05746a5146100ec578063f23a6e6114610108575b600080fd5b61007660048036038101906100719190611903565b610138565b604051610083919061194b565b60405180910390f35b6100a660048036038101906100a19190611c08565b6101b2565b6040516100b39190611ce6565b60405180910390f35b6100d660048036038101906100d19190611da2565b6101c7565b6040516100e3919061194b565b60405180910390f35b61010660048036038101906101019190611e52565b610226565b005b610122600480360381019061011d9190611e9b565b611151565b60405161012f9190611ce6565b60405180910390f35b60007f4e2312e0000000000000000000000000000000000000000000000000000000007bffffffffffffffffffffffffffffffffffffffffffffffffffffffff1916827bffffffffffffffffffffffffffffffffffffffffffffffffffffffff191614806101ab57506101aa82611166565b5b9050919050565b600063bc197c8160e01b905095945050505050565b6000806101d3856111d0565b905060006101ea858361120b90919063ffffffff16565b90508373ffffffffffffffffffffffffffffffffffffffff168173ffffffffffffffffffffffffffffffffffffffff1614925050509392505050565b60005b8180600001906102399190611f41565b9050811015610673576103998280600001906102559190611f41565b8381811061026657610265611fa4565b5b90506020028101906102789190611fd3565b80604001906102879190611ffb565b8080601f016020809104026020016040519081016040528093929190818152602001838380828437600081840152601f19601f820116905080830192505050505050508380600001906102da9190611f41565b848181106102eb576102ea611fa4565b5b90506020028101906102fd9190611fd3565b806060019061030c919061205e565b8080601f016020809104026020016040519081016040528093929190818152602001838380828437600081840152601f19601f8201169050808301925050505050505084806000019061035f9190611f41565b858181106103705761036f611fa4565b5b90506020028101906103829190611fd3565b600001602081019061039491906120c1565b6101c7565b6103d8576040517f08c379a00000000000000000000000000000000000000000000000000000000081526004016103cf9061214b565b60405180910390fd5b60018260e00160208101906103ed91906121a4565b60ff16036105075781608001602081019061040891906120c1565b73ffffffffffffffffffffffffffffffffffffffff166323b872dd8380600001906104339190611f41565b8481811061044457610443611fa4565b5b90506020028101906104569190611fd3565b600001602081019061046891906120c1565b308580600001906104799190611f41565b8681811061048a57610489611fa4565b5b905060200281019061049c9190611fd3565b602001356040518463ffffffff1660e01b81526004016104be939291906121ef565b6020604051808303816000875af11580156104dd573d6000803e3d6000fd5b505050506040513d601f19601f820116820180604052508101906105019190612252565b50610666565b60028260e001602081019061051c91906121a4565b60ff160361062a5781608001602081019061053791906120c1565b73ffffffffffffffffffffffffffffffffffffffff1663f242432a8380600001906105629190611f41565b8481811061057357610572611fa4565b5b90506020028101906105859190611fd3565b600001602081019061059791906120c1565b308560c001358680600001906105ad9190611f41565b878181106105be576105bd611fa4565b5b90506020028101906105d09190611fd3565b602001356040518563ffffffff1660e01b81526004016105f394939291906122b6565b600060405180830381600087803b15801561060d57600080fd5b505af1158015610621573d6000803e3d6000fd5b50505050610665565b6040517f08c379a000000000000000000000000000000000000000000000000000000000815260040161065c9061235a565b60405180910390fd5b5b8080600101915050610229565b5060005b818060200190610687919061237a565b9050811015610af4576000670de0b6b3a764000083606001358480602001906106b0919061237a565b858181106106c1576106c0611fa4565b5b90506020028101906106d391906123dd565b602001356106e19190612434565b6106eb91906124a5565b905061072c6040518060400160405280600a81526020017f746f5472616e736665720000000000000000000000000000000000000000000081525082611237565b61088383806020019061073f919061237a565b848181106107505761074f611fa4565b5b905060200281019061076291906123dd565b80604001906107719190611ffb565b8080601f016020809104026020016040519081016040528093929190818152602001838380828437600081840152601f19601f820116905080830192505050505050508480602001906107c4919061237a565b858181106107d5576107d4611fa4565b5b90506020028101906107e791906123dd565b80606001906107f6919061205e565b8080601f016020809104026020016040519081016040528093929190818152602001838380828437600081840152601f19601f82011690508083019250505050505050858060200190610849919061237a565b8681811061085a57610859611fa4565b5b905060200281019061086c91906123dd565b600001602081019061087e91906120c1565b6101c7565b6108c2576040517f08c379a00000000000000000000000000000000000000000000000000000000081526004016108b99061214b565b60405180910390fd5b6001836101000160208101906108d891906121a4565b60ff16036109bc578260a00160208101906108f391906120c1565b73ffffffffffffffffffffffffffffffffffffffff166323b872dd84806020019061091e919061237a565b8581811061092f5761092e611fa4565b5b905060200281019061094191906123dd565b600001602081019061095391906120c1565b30846040518463ffffffff1660e01b8152600401610973939291906121ef565b6020604051808303816000875af1158015610992573d6000803e3d6000fd5b505050506040513d601f19601f820116820180604052508101906109b69190612252565b50610ae6565b6002836101000160208101906109d291906121a4565b60ff1603610aaa578260a00160208101906109ed91906120c1565b73ffffffffffffffffffffffffffffffffffffffff1663f242432a848060200190610a18919061237a565b85818110610a2957610a28611fa4565b5b9050602002810190610a3b91906123dd565b6000016020810190610a4d91906120c1565b308660c00135856040518563ffffffff1660e01b8152600401610a7394939291906122b6565b600060405180830381600087803b158015610a8d57600080fd5b505af1158015610aa1573d6000803e3d6000fd5b50505050610ae5565b6040517f08c379a0000000000000000000000000000000000000000000000000000000008152600401610adc90612522565b60405180910390fd5b5b508080600101915050610677565b5060005b818060000190610b089190611f41565b9050811015610e22576000670de0b6b3a7640000838060000190610b2c9190611f41565b84818110610b3d57610b3c611fa4565b5b9050602002810190610b4f9190611fd3565b602001358460600135610b629190612434565b610b6c91906124a5565b9050610bf2838060000190610b819190611f41565b84818110610b9257610b91611fa4565b5b9050602002810190610ba49190611fd3565b6000016020810190610bb691906120c1565b6040518060400160405280601381526020017f77696c6c20726563656976652028555344432900000000000000000000000000815250836112d3565b600183610100016020810190610c0891906121a4565b60ff1603610cea578260a0016020810190610c2391906120c1565b73ffffffffffffffffffffffffffffffffffffffff1663a9059cbb848060000190610c4e9190611f41565b85818110610c5f57610c5e611fa4565b5b9050602002810190610c719190611fd3565b6000016020810190610c8391906120c1565b836040518363ffffffff1660e01b8152600401610ca1929190612542565b6020604051808303816000875af1158015610cc0573d6000803e3d6000fd5b505050506040513d601f19601f82011682018060405250810190610ce49190612252565b50610e14565b600283610100016020810190610d0091906121a4565b60ff1603610dd8578260a0016020810190610d1b91906120c1565b73ffffffffffffffffffffffffffffffffffffffff1663f242432a848060000190610d469190611f41565b85818110610d5757610d56611fa4565b5b9050602002810190610d699190611fd3565b6000016020810190610d7b91906120c1565b308660c00135856040518563ffffffff1660e01b8152600401610da194939291906122b6565b600060405180830381600087803b158015610dbb57600080fd5b505af1158015610dcf573d6000803e3d6000fd5b50505050610e13565b6040517f08c379a0000000000000000000000000000000000000000000000000000000008152600401610e0a90612522565b60405180910390fd5b5b508080600101915050610af8565b5060005b818060200190610e36919061237a565b905081101561114d57610eb46040518060400160405280601481526020017f77696c6c2072656365697665202842554e4e5929000000000000000000000000815250838060200190610e88919061237a565b84818110610e9957610e98611fa4565b5b9050602002810190610eab91906123dd565b60200135611237565b60018260e0016020810190610ec991906121a4565b60ff1603610fe157816080016020810190610ee491906120c1565b73ffffffffffffffffffffffffffffffffffffffff1663a9059cbb838060200190610f0f919061237a565b84818110610f2057610f1f611fa4565b5b9050602002810190610f3291906123dd565b6000016020810190610f4491906120c1565b848060200190610f54919061237a565b85818110610f6557610f64611fa4565b5b9050602002810190610f7791906123dd565b602001356040518363ffffffff1660e01b8152600401610f98929190612542565b6020604051808303816000875af1158015610fb7573d6000803e3d6000fd5b505050506040513d601f19601f82011682018060405250810190610fdb9190612252565b50611140565b60028260e0016020810190610ff691906121a4565b60ff16036111045781608001602081019061101191906120c1565b73ffffffffffffffffffffffffffffffffffffffff1663f242432a3084806020019061103d919061237a565b8581811061104e5761104d611fa4565b5b905060200281019061106091906123dd565b600001602081019061107291906120c1565b8560c00135868060200190611087919061237a565b8781811061109857611097611fa4565b5b90506020028101906110aa91906123dd565b602001356040518563ffffffff1660e01b81526004016110cd94939291906122b6565b600060405180830381600087803b1580156110e757600080fd5b505af11580156110fb573d6000803e3d6000fd5b5050505061113f565b6040517f08c379a00000000000000000000000000000000000000000000000000000000081526004016111369061235a565b60405180910390fd5b5b8080600101915050610e26565b5050565b600063f23a6e6160e01b905095945050505050565b60007f01ffc9a7000000000000000000000000000000000000000000000000000000007bffffffffffffffffffffffffffffffffffffffffffffffffffffffff1916827bffffffffffffffffffffffffffffffffffffffffffffffffffffffff1916149050919050565b60006111dc8251611372565b826040516020016111ee929190612602565b604051602081830303815290604052805190602001209050919050565b60008060008061121b8686611440565b92509250925061122b828261149c565b82935050505092915050565b6112cf828260405160240161124d929190612679565b6040516020818303038152906040527fb60e72cc000000000000000000000000000000000000000000000000000000007bffffffffffffffffffffffffffffffffffffffffffffffffffffffff19166020820180517bffffffffffffffffffffffffffffffffffffffffffffffffffffffff8381831617835250505050611600565b5050565b61136d8383836040516024016112eb939291906126a9565b6040516020818303038152906040527f67dd6ff1000000000000000000000000000000000000000000000000000000007bffffffffffffffffffffffffffffffffffffffffffffffffffffffff19166020820180517bffffffffffffffffffffffffffffffffffffffffffffffffffffffff8381831617835250505050611600565b505050565b6060600060016113818461161a565b01905060008167ffffffffffffffff8111156113a05761139f6119da565b5b6040519080825280601f01601f1916602001820160405280156113d25781602001600182028036833780820191505090505b509050600082602083010190505b600115611435578080600190039150507f3031323334353637383961626364656600000000000000000000000000000000600a86061a8153600a858161142957611428612476565b5b049450600085036113e0575b819350505050919050565b600080600060418451036114855760008060006020870151925060408701519150606087015160001a90506114778882858561176d565b955095509550505050611495565b60006002855160001b9250925092505b9250925092565b600060038111156114b0576114af6126e7565b5b8260038111156114c3576114c26126e7565b5b03156115fc57600160038111156114dd576114dc6126e7565b5b8260038111156114f0576114ef6126e7565b5b03611527576040517ff645eedf00000000000000000000000000000000000000000000000000000000815260040160405180910390fd5b6002600381111561153b5761153a6126e7565b5b82600381111561154e5761154d6126e7565b5b03611593578060001c6040517ffce698f700000000000000000000000000000000000000000000000000000000815260040161158a9190612716565b60405180910390fd5b6003808111156115a6576115a56126e7565b5b8260038111156115b9576115b86126e7565b5b036115fb57806040517fd78bce0c0000000000000000000000000000000000000000000000000000000081526004016115f2919061274a565b60405180910390fd5b5b5050565b6116178161160f611861611882565b63ffffffff16565b50565b600080600090507a184f03e93ff9f4daa797ed6e38ed64bf6a1f0100000000000000008310611678577a184f03e93ff9f4daa797ed6e38ed64bf6a1f010000000000000000838161166e5761166d612476565b5b0492506040810190505b6d04ee2d6d415b85acef810000000083106116b5576d04ee2d6d415b85acef810000000083816116ab576116aa612476565b5b0492506020810190505b662386f26fc1000083106116e457662386f26fc1000083816116da576116d9612476565b5b0492506010810190505b6305f5e100831061170d576305f5e100838161170357611702612476565b5b0492506008810190505b612710831061173257612710838161172857611727612476565b5b0492506004810190505b60648310611755576064838161174b5761174a612476565b5b0492506002810190505b600a8310611764576001810190505b80915050919050565b60008060007f7fffffffffffffffffffffffffffffff5d576e7357a4501ddfe92f46681b20a08460001c11156117ad576000600385925092509250611857565b6000600188888888604051600081526020016040526040516117d29493929190612774565b6020604051602081039080840390855afa1580156117f4573d6000803e3d6000fd5b505050602060405103519050600073ffffffffffffffffffffffffffffffffffffffff168173ffffffffffffffffffffffffffffffffffffffff160361184857600060016000801b93509350935050611857565b8060008060001b935093509350505b9450945094915050565b60006a636f6e736f6c652e6c6f679050600080835160208501845afa505050565b61188d819050919050565b6118956127b9565b565b6000604051905090565b600080fd5b600080fd5b60007fffffffff0000000000000000000000000000000000000000000000000000000082169050919050565b6118e0816118ab565b81146118eb57600080fd5b50565b6000813590506118fd816118d7565b92915050565b600060208284031215611919576119186118a1565b5b6000611927848285016118ee565b91505092915050565b60008115159050919050565b61194581611930565b82525050565b6000602082019050611960600083018461193c565b92915050565b600073ffffffffffffffffffffffffffffffffffffffff82169050919050565b600061199182611966565b9050919050565b6119a181611986565b81146119ac57600080fd5b50565b6000813590506119be81611998565b92915050565b600080fd5b6000601f19601f8301169050919050565b7f4e487b7100000000000000000000000000000000000000000000000000000000600052604160045260246000fd5b611a12826119c9565b810181811067ffffffffffffffff82111715611a3157611a306119da565b5b80604052505050565b6000611a44611897565b9050611a508282611a09565b919050565b600067ffffffffffffffff821115611a7057611a6f6119da565b5b602082029050602081019050919050565b600080fd5b6000819050919050565b611a9981611a86565b8114611aa457600080fd5b50565b600081359050611ab681611a90565b92915050565b6000611acf611aca84611a55565b611a3a565b90508083825260208201905060208402830185811115611af257611af1611a81565b5b835b81811015611b1b5780611b078882611aa7565b845260208401935050602081019050611af4565b5050509392505050565b600082601f830112611b3a57611b396119c4565b5b8135611b4a848260208601611abc565b91505092915050565b600080fd5b600067ffffffffffffffff821115611b7357611b726119da565b5b611b7c826119c9565b9050602081019050919050565b82818337600083830152505050565b6000611bab611ba684611b58565b611a3a565b905082815260208101848484011115611bc757611bc6611b53565b5b611bd2848285611b89565b509392505050565b600082601f830112611bef57611bee6119c4565b5b8135611bff848260208601611b98565b91505092915050565b600080600080600060a08688031215611c2457611c236118a1565b5b6000611c32888289016119af565b9550506020611c43888289016119af565b945050604086013567ffffffffffffffff811115611c6457611c636118a6565b5b611c7088828901611b25565b935050606086013567ffffffffffffffff811115611c9157611c906118a6565b5b611c9d88828901611b25565b925050608086013567ffffffffffffffff811115611cbe57611cbd6118a6565b5b611cca88828901611bda565b9150509295509295909350565b611ce0816118ab565b82525050565b6000602082019050611cfb6000830184611cd7565b92915050565b600067ffffffffffffffff821115611d1c57611d1b6119da565b5b611d25826119c9565b9050602081019050919050565b6000611d45611d4084611d01565b611a3a565b905082815260208101848484011115611d6157611d60611b53565b5b611d6c848285611b89565b509392505050565b600082601f830112611d8957611d886119c4565b5b8135611d99848260208601611d32565b91505092915050565b600080600060608486031215611dbb57611dba6118a1565b5b600084013567ffffffffffffffff811115611dd957611dd86118a6565b5b611de586828701611d74565b935050602084013567ffffffffffffffff811115611e0657611e056118a6565b5b611e1286828701611bda565b9250506040611e23868287016119af565b9150509250925092565b600080fd5b60006101208284031215611e4957611e48611e2d565b5b81905092915050565b600060208284031215611e6857611e676118a1565b5b600082013567ffffffffffffffff811115611e8657611e856118a6565b5b611e9284828501611e32565b91505092915050565b600080600080600060a08688031215611eb757611eb66118a1565b5b6000611ec5888289016119af565b9550506020611ed6888289016119af565b9450506040611ee788828901611aa7565b9350506060611ef888828901611aa7565b925050608086013567ffffffffffffffff811115611f1957611f186118a6565b5b611f2588828901611bda565b9150509295509295909350565b600080fd5b600080fd5b600080fd5b60008083356001602003843603038112611f5e57611f5d611f32565b5b80840192508235915067ffffffffffffffff821115611f8057611f7f611f37565b5b602083019250602082023603831315611f9c57611f9b611f3c565b5b509250929050565b7f4e487b7100000000000000000000000000000000000000000000000000000000600052603260045260246000fd5b600082356001608003833603038112611fef57611fee611f32565b5b80830191505092915050565b6000808335600160200384360303811261201857612017611f32565b5b80840192508235915067ffffffffffffffff82111561203a57612039611f37565b5b60208301925060018202360383131561205657612055611f3c565b5b509250929050565b6000808335600160200384360303811261207b5761207a611f32565b5b80840192508235915067ffffffffffffffff82111561209d5761209c611f37565b5b6020830192506001820236038313156120b9576120b8611f3c565b5b509250929050565b6000602082840312156120d7576120d66118a1565b5b60006120e5848285016119af565b91505092915050565b600082825260208201905092915050565b7f5369676e617475726520697320696e76616c6964000000000000000000000000600082015250565b60006121356014836120ee565b9150612140826120ff565b602082019050919050565b6000602082019050818103600083015261216481612128565b9050919050565b600060ff82169050919050565b6121818161216b565b811461218c57600080fd5b50565b60008135905061219e81612178565b92915050565b6000602082840312156121ba576121b96118a1565b5b60006121c88482850161218f565b91505092915050565b6121da81611986565b82525050565b6121e981611a86565b82525050565b600060608201905061220460008301866121d1565b61221160208301856121d1565b61221e60408301846121e0565b949350505050565b61222f81611930565b811461223a57600080fd5b50565b60008151905061224c81612226565b92915050565b600060208284031215612268576122676118a1565b5b60006122768482850161223d565b91505092915050565b600082825260208201905092915050565b50565b60006122a060008361227f565b91506122ab82612290565b600082019050919050565b600060a0820190506122cb60008301876121d1565b6122d860208301866121d1565b6122e560408301856121e0565b6122f260608301846121e0565b818103608083015261230381612293565b905095945050505050565b7f4261736520746f6b656e207479706520697320756e6b6e6f776e000000000000600082015250565b6000612344601a836120ee565b915061234f8261230e565b602082019050919050565b6000602082019050818103600083015261237381612337565b9050919050565b6000808335600160200384360303811261239757612396611f32565b5b80840192508235915067ffffffffffffffff8211156123b9576123b8611f37565b5b6020830192506020820236038313156123d5576123d4611f3c565b5b509250929050565b6000823560016080038336030381126123f9576123f8611f32565b5b80830191505092915050565b7f4e487b7100000000000000000000000000000000000000000000000000000000600052601160045260246000fd5b600061243f82611a86565b915061244a83611a86565b925082820261245881611a86565b9150828204841483151761246f5761246e612405565b5b5092915050565b7f4e487b7100000000000000000000000000000000000000000000000000000000600052601260045260246000fd5b60006124b082611a86565b91506124bb83611a86565b9250826124cb576124ca612476565b5b828204905092915050565b7f51756f746520746f6b656e207479706520697320756e6b6e6f776e0000000000600082015250565b600061250c601b836120ee565b9150612517826124d6565b602082019050919050565b6000602082019050818103600083015261253b816124ff565b9050919050565b600060408201905061255760008301856121d1565b61256460208301846121e0565b9392505050565b7f19457468657265756d205369676e6564204d6573736167653a0a000000000000815250565b600081519050919050565b600081905092915050565b60005b838110156125c55780820151818401526020810190506125aa565b60008484015250505050565b60006125dc82612591565b6125e6818561259c565b93506125f68185602086016125a7565b80840191505092915050565b600061260d8261256b565b601a8201915061261d82856125d1565b915061262982846125d1565b91508190509392505050565b600081519050919050565b600061264b82612635565b61265581856120ee565b93506126658185602086016125a7565b61266e816119c9565b840191505092915050565b600060408201905081810360008301526126938185612640565b90506126a260208301846121e0565b9392505050565b60006060820190506126be60008301866121d1565b81810360208301526126d08185612640565b90506126df60408301846121e0565b949350505050565b7f4e487b7100000000000000000000000000000000000000000000000000000000600052602160045260246000fd5b600060208201905061272b60008301846121e0565b92915050565b6000819050919050565b61274481612731565b82525050565b600060208201905061275f600083018461273b565b92915050565b61276e8161216b565b82525050565b6000608082019050612789600083018761273b565b6127966020830186612765565b6127a3604083018561273b565b6127b0606083018461273b565b95945050505050565b7f4e487b7100000000000000000000000000000000000000000000000000000000600052605160045260246000fdfea2646970667358221220bf5ec2c8ef6987f5e854671e56b473a7a5ad2dec5e0f172c843b9b127bb80cc464736f6c634300081c0033",
  "linkReferences": {},
  "deployedLinkReferences": {}
}